:020000041000EA
:1000000000B5324B212058609868022188439860DF
:10001000D860186158612E4B002199600221596106
:100020000121F02299502B49196001219960352056
:1000300000F044F80222904214D00621196600F024
:1000400034F8196E01211966002018661A6600F04E
:100050002CF8196E196E196E052000F02FF8012189
:100060000842F9D1002199601B49196000215960AB
:100070001A491B48016001219960EB211966A021F2
:10008000196600F012F800219960164914480160C1
:100090000121996001BC002800D000471248134993
:1000A000086003C880F30888084703B5996A0420EC
:1000B0000142FBD001200142F8D103BD02B5186610
:1000C0001866FFF7F2FF186E186E02BD00000240BE
:1000D000000000180000070000035F00212200005C
:1000E000F4000018222000A00001001008ED00E03C
:1000F00000000000000000000000000074B24E7A12
:1001000000200420F7010010C3010010C5010010F9
:10011000C1010010C1010010C1010010C101001097
:10012000C1010010C1010010C1010010C701001081
:10013000C1010010C1010010C9010010CB01001065
:10014000CD010010CD010010CD010010CD01001037
:10015000CD010010CD010010CD010010CD01001027
:10016000CD010010CD010010CD010010CD01001017
:10017000CD010010CD010010CD010010CD01001007
:10018000CD010010CD010010CD010010CD010010F7
:10019000CD010010CD010010CD010010CD010010E7
:1001A000CD010010CD010010CD010010CD010010D7
:1001B000CD010010CD010010CD010010CD010010C7
:1001C00000BE00BE00BE00BE00BE00BEEFF3058054
:1001D000103800BEF2EB8871C0650010F0650010A9
:1001E0003802001090A31AE71E481F49086006C88D
:1001F00081F3088810471D480068002801D019487D
:10020000F3E70DA40ECC002902D000F012F8F9E7B4
:100210001749184A002000E001C19142FCD116495B
:100220008847164988471649884700BEFDE701C937
:1002300001C29A42FBD37047F0650010C000002055
:10024000F8150020287B0010000004200000042086
:10025000287B001000100420001004200000000083
:10026000704700000000000008ED00E0000000D032
:10027000F8150020E826002025230010D5020010E4
:100280001D230010F8B5C04606480749091A8B100F
:10029000C90FC91810B5491003D0044B002B00D06A
:1002A000984710BDF8150020F81500200000000048
:1002B000054B10B5002B03D00449054800E000BFF2
:1002C000FFF7E2FF10BDC0460000000070250020CF
:1002D000F4600010F0B5D6464F464646C0B502F071
:1002E0002DF904F0C1FFFA20400104F0E9FF0120DC
:1002F00005F024F805F0A4F805F016F9904B914F9D
:100300009A46914B914E9946914B9846002527E08D
:10031000012D00D19BE0022D7BD101F02FFF0028A1
:1003200000D0B9E08B49201C01F028FF002800D044
:10033000C9E0FA21201C890501F020FF002800D027
:10034000F1E0FC21201C890501F018FF434600283C
:1003500078D01421D87805F027F905F067F9013530
:1003600004F0C4FF00220F21041C002005F08AF9CC
:10037000FA200021400001F0A3F8BF21201C09064B
:10038000032D28D0042DC3D101F0F8FE002878D128
:100390007049201C01F0F2FE002800D0A4E0FA21F0
:1003A000201C890501F0EAFE002800D0ABE0FC210A
:1003B000201C890501F0E2FE002800D19EE01421F6
:1003C000F07805F0F1F805F031F9642001F0EEF86D
:1003D00005F010F99AE701F0D1FE002862D15D49DD
:1003E000201C01F0CBFE002873D1FA21201C8905C6
:1003F00001F0C4FE002800D090E0FC21201C8905FB
:1004000001F0BCFE002874D01421F87805F0CCF877
:10041000A3E701F0B3FE002849D14E49201C01F0AA
:10042000ADFE00285AD1FA21201C890501F0A6FE54
:1004300000287ED1FC21201C890501F09FFE534637
:10044000002886D11421187905F0AEF885E701F06F
:1004500095FE00281AD13F49201C01F08FFE00288C
:100460002BD1FA21201C890501F088FE00284FD1EC
:10047000FC21201C890501F081FE4B460028E1D0BB
:1004800067E71421307805F08FF89CE74B4614217C
:10049000187805F089F860E743461421187805F0CC
:1004A00083F85AE71421387805F07EF855E753466B
:1004B0001421187805F078F84FE74B461421587846
:1004C00005F072F849E743461421587805F06CF8B6
:1004D00043E71421787805F067F83EE75346142186
:1004E000587805F061F838E71421707805F05CF869
:1004F00069E71421387905F057F82EE7142130798F
:1005000005F052F85FE71421B07805F04DF85AE78E
:100510004B461421987805F047F81EE71421B87867
:1005200005F042F819E743461421987805F03CF8A5
:1005300013E753461421987805F036F80DE7C046C6
:10054000B80F0020A00F0020B00F0020980F00204F
:10055000A80F0020000080BE094A83009A1810B539
:1005600014684022544080322240064CC000A44609
:1005700063441A60044B9C466044416010BDC04611
:1005800004C0014004D0014000400140074B8000FE
:10059000C3181B68C90092000A435A400C23134039
:1005A000034A9446604403607047C04604C001405B
:1005B00004D001408000002905D0064B9C46402312
:1005C000604403607047044B9C46402360440360D2
:1005D000F8E7C04604E0014004F001400123D022C6
:1005E0008340120693629361094A83009A18116846
:1005F0004022514080320A400649C0008C46634484
:100600001A60054B9C460523604443607047C04612
:1006100004C0014004D00140004001408023DB05BC
:100620001868000F7047C0460FB400B5084883B083
:1006300001F0D6FF049B002B07D005A918000191FB
:1006400001F038FE034801F0CBFF012001F04AFE23
:10065000F460001004610010EFF3108072B6034ADA
:100660001368002BFCD0BFF35F8F70472C0100D0C4
:10067000BFF35F8F0022024B1A6080F3108870472F
:100680002C0100D070B5EFF3108C72B60D4D2B68B5
:10069000002BFCD0BFF35F8F0724CB08C618C05CCB
:1006A00001230C40A3401C000440034207D118431F
:1006B0003070BFF35F8F2C608CF3108870BD10001A
:1006C000FFF7B2FF2C0100D0F8B54746CE4688466A
:1006D00080B5EFF3108C72B61C4D2C68002CFCD04A
:1006E000BFF35F8F9A4222D807210126894602E094
:1006F0000132934218D34D4637001540AF40D4081D
:100700000119045D2742F3D110003C430C70BFF384
:100710005F8F00220D4B1A608CF3108800280EDBCF
:10072000C0BCB946B046F8BD01204042EFE7BFF378
:100730005F8F00232B608CF31088012040424346DA
:10074000002BEDD00898FFF76FFFC0462C0100D0BA
:10075000044A1078431CDBB2172B00D91023137006
:100760007047C046BD0F002010B5064B064C82B046
:100770000100009318221F232000FFF7A5FF02B0FD
:1007800010BDC04608610010F02000200021044B7D
:10079000044ABFF35F8F02C39342FAD17047C04649
:1007A000000100D0800100D0054B064A1360064AC4
:1007B000136053609360D36013615361936170471A
:1007C0008080808000E400E004E400E01F23184003
:1007D0001E3B8340002905D0C021044A49005350E4
:1007E00013607047802201498B50FAE700E100E076
:1007F00001228240034B1B6813405A1E9341D8B21A
:100800007047C04600E100E001238340014A1360C5
:100810007047C04600E200E0064B10309B68800045
:10082000C358054A00209B1A2F229A424041C0B269
:100830007047C04600ED00E0C00F002070B50D000D
:10084000EFF3108672B60F4A1368002BFCD0BFF38B
:100850005F8F0D4B10309B6884001B590B4A9342ED
:1008600003D09D4201D001F08BFA074B9B681D51CC
:10087000BFF35F8FBFF35F8F0022024B1A6086F3D6
:10088000108870BD240100D000ED00E0CD01001003
:10089000F0B557464E46DE464546E0B585B0060003
:1008A00000911700EFF3108B72B66A4A1368002BA1
:1008B000FCD0BFF35F8F0025674B5D579A46002D34
:1008C00000DAA9E06B00654C01935B199B00984628
:1008D000A146C1444B4652469B7910361370604B7B
:1008E000B6009B6899590B1B2F2B33D95D4B99424E
:1008F00000D0ACE0019B42469C465B4B6544AD009A
:1009000063535A4B0232A218043B9B1A1B05584AE8
:100910005B0D651913436B80564B0121AB80FF23A0
:10092000AB71009BEF71AB604B460B4319004C4B16
:100930009B689951BFF35F8FBFF35F8F0022454BD8
:100940001A608BF3108805B0F0BCBB46B246A946CE
:10095000A046F0BD01200A008243D3798C46BB42F9
:1009600031D84546130044491B1B5B415943090DCF
:100970003D4B63533D4B02356519043B5B1B1B0527
:100980003B4D5B0D2B43AA464D466B800425AC4680
:100990005546E044131F44441B1B1B055B0D1D43C0
:1009A0004B46997100999D8099604946DF71334BA0
:1009B00001431360BBE75800C01880002018C179BC
:1009C000B9422FD902000623D356002BF3DA029343
:1009D0002B4B61460393131D9A4604235B429C46AE
:1009E000E14450464B461B1A1B055B0D9C46204BB1
:1009F000957198466346404603439380019B5A197C
:100A00009200039BA418A380029B1C4AA371009B25
:100A10002260E771A3608AE701F0B2F9002553462E
:100A20005D574FE7908802934005131D9A460315C2
:100A300061469C464046D444634604302018181A48
:100A4000E0230005400D1B0218430390C5E701F0A9
:100A500097F94FE7240100D0E0260020C00F0020C6
:100A600000ED00E0CD01001000A1FFFFF00F00201D
:100A700000E0FFFF01BDFFFFAAAA00000148804778
:100A800001BD0000F0B5DE4657464E464546E0B58E
:100A90000C0083B0EFF3108872B6634A1368002B22
:100AA000FCD0BFF35F8F614B61499A68030010333C
:100AB0009F00D55901938D4243D0A54254D05D4E3D
:100AC000AA1B2F2A3DD85C4B9B461B6899460123E5
:100AD0001A009C4682404B4613401F2299466346AB
:100AE000024093409A4680225B4650469850BFF39E
:100AF0005F8FEFF305839B46002B37D0019B5B454F
:100B000001D001F03DF901232A009A439068844204
:100B100008D176E04B005B189B00F318986884427C
:100B200036D01A00062151560029F3DA844254D0F7
:100B30004B46002B27D0C02251463F4B52009950C4
:100B400019603A4B9B68DD51BFF35F8FBFF35F8F36
:100B50000022354B1A6088F3108803B0F0BCBB4606
:100B6000B246A946A046F0BD0D00EAE72A0063465A
:100B70009A4390688442D5D106201056130000286D
:100B80000ADA0D0031E0802351462B4AD150D8E7D4
:100B900006201856002821DB42001118890074181D
:100BA0008B46A1689960E179D971062161569971E6
:100BB000002924DBA488F11A640524155C44091972
:100BC00009051E4C490D2143998013181C4A9B00AE
:100BD0001178F31899711070AAE71300594600298B
:100BE00014D1FF3191711749918015490A789A7192
:100BF000154A9B1B5B415A43120D0A7098E7114935
:100C0000E2E70620105613000028C5DA0F4A104903
:100C1000D21A083A5002400D014399800D495208FA
:100C20000A43DA8084E7C046240100D000ED00E0EA
:100C3000CD010010C00F002000E100E000E0FFFF48
:100C4000E026002001BDFFFFAAAA0000FA0F002045
:100C500000F0FFFF00F8FFFF70B501240443EFF33D
:100C60000581EFF3108C72B6214A1368002BFCD07B
:100C7000BFF35F8F1F4B05001F4AED1A6D416A439A
:100C8000120D1E4D8900AE6852B27658A6421CD095
:100C90000621595691421CD012215956914222D018
:100CA0001E215956914220D02A215956032491429F
:100CB00010D0134B19781A708171BFF35F8F002227
:100CC0000B4B1A608CF3108870BDAB680D4C5C50F8
:100CD000EFE700246100091989005B18FF21997171
:100CE00009499980E5E70124F4E70224F2E7C046C8
:100CF000240100D0C00F0020AAAA000000ED00E0EF
:100D0000E0260020CD01001001BDFFFF10B5084B0B
:100D1000084C82B001000093002205232000FFF759
:100D2000D3FC002801DB1F23181A02B010BDC046F7
:100D300024610010E4260020024B9C466144890097
:100D4000016070474000003470B5114C114DAC4249
:100D50000FD2FF262368002B0CD0FFF7F9FC01000F
:100D60002000FFF7E9FFA680BFF35F8F0834AC4295
:100D7000F0D370BDFFF7ECFC01002000FFF7DCFFB3
:100D80002671BFF35F8F0834AC42E3D3F1E7C0466E
:100D9000F0150020F815002010B50400FFF7D8FC6E
:100DA00001002000FFF7C8FFFF232371BFF35F8F0F
:100DB00010BDC04610B504000120FFF7D5FC034B61
:100DC000C3189B002360BFF35F8F10BD4000003449
:100DD000034B9C46614489000160BFF35F8F7047FD
:100DE000400000340A4B1968EFF3108072B60A68AD
:100DF000002AFCD0BFF35F8F1B68BFF35F8F002218
:100E00001A6080F3108840BF002000217047C04660
:100E1000B0260020F0B5DE4657464E464546E0B5C2
:100E200087B0EFF30583032201251A409540910016
:100E30008846A946B34B03925C58B34B1D60B34B35
:100E400004934B46B24843630823E55E002D37DA2E
:100E5000A3881BB2002B00DBADE0A379002B00D0F0
:100E6000EEE00823E05E002820DB430062691B18E7
:100E7000DB00D3189E68DD68731C00D111E1A44823
:100E800001004144826A0B69B71A9B1A9F4215D32D
:100E90000123026A039883401A420FD09C4800F055
:100EA00093FC8D4202DCCCD18642CAD940BF07B048
:100EB000F0BCBB46B246A946A046F0BD0E61EDE7C8
:100EC00062696B0092465B19DB009A4453469E6848
:100ED000DF6800F079FC8F42BADC00D103E1002F1B
:100EE00000DAE8E05246534652691B699346049A79
:100EF000934200D1D9E052460821605E5288000436
:100F0000594610439847009001910099019A0B00AF
:100F10001000134300D1CEE013000A00B61A9F411F
:100F2000002806DB7A4800F04FFC009E019F36182F
:100F30004F4153469E60DF6000229A5E002A00DA2D
:100F400086E7530099186069C900411802938B68BD
:100F5000C9689B46B94200DD7AE702D1B34200D9A5
:100F600076E708239C46A444059565462281A4465D
:100F7000029B2C0006E053009918C90041188D68A7
:100F8000C968AB469B18DB00C318B94206DC00D128
:100F9000B3E01C000023E25E002AECDA2300644682
:100FA0009C4653461A806346059D1D80A3881BB24C
:100FB000002B00DA51E72269EFF3108172B6136853
:100FC000002BFCD0BFF35F8F0123A7885B42A38077
:100FD0003FB22369BFF35F8F00221A6081F310884C
:100FE000002F00DA39E72300083322009A466669A9
:100FF0007B00DB19DB00F318996850468C46082407
:10100000115FDD68002910DB029306E0AB4244D09B
:101010000023E15E2000002906DB4C006418E40098
:101020003419E368AB42F1DD029B078000201F5EAC
:101030001980002FDCDA1400A379002B00D110E70F
:101040000023A37126000823E15E08364B1C00D163
:101050002CE70800A246656902E03E004B1C1AD04E
:101060004B005B18DB00EF180A008C46E95E7B88BA
:101070001BB2002BF1DA01235B42DC17BB60FC6082
:10108000824205D0534631801B893B8053461A81EA
:1010900060464B1CE4D15446E5E6A3686345B7D9E6
:1010A000C2E76B1C00D0EAE6F8E65B4658461B69CF
:1010B000984700281BD153461B8822692381EFF3F0
:1010C000108372B611680029FCD0BFF35F8F5146C0
:1010D00062880A8022696580BFF35F8F00211160FA
:1010E00083F31088B4E6864200D8F8E6B0E65B46A3
:1010F0001A685B680092019307E7B34500D848E798
:101100004CE7C046902500203C700540150E0010AD
:101110000040054070B52E4C2569002D04D00A21F1
:101120002C48FFF709FE70BD2B4E0321300000F064
:1011300041FBE660FFF70CFB284B03229C46D023C3
:1011400022701B061B6801216370254B6044A3605D
:101150000F23800020610220638063694942A180DF
:1011600019800231198647311D83585218315A525D
:1011700075325C3999521832013199521832013165
:101180009952183201319952083518329D52023164
:10119000183299521832013199521832013199524C
:1011A00018320131995218320131995218320131F5
:1011B00099520C4B0C49DC6001303562FFF73EFB65
:1011C00001210320FFF702FB084B1D60A7E7C04683
:1011D00008100020B02600200040054040000034E8
:1011E000FFFF100090250020150E0010386005400C
:1011F0000048704708100020F8B51F0008AB1B78A6
:1012000004001600002B08D100F0E6FA32003B0083
:10121000121A8B41002B00DA52E02269EFF31080A2
:1012200072B61368002BFCD0BFF35F8F0223E15E20
:1012300063694A005218D2009B182269002936DBE4
:101240001D886580BFF35F8F0025156080F31088CF
:10125000069A9E60DF601A61079A5A615A880132C5
:101260005204520C101C002A1FD082B2588008046D
:1012700010432669EFF3108772B63268002AFCD05B
:10128000BFF35F8FA2881A80A1802369BFF35F8FAD
:1012900000221A6087F310880A4923788C460132AD
:1012A0009A40E36863441A60F8BD0120DDE7BFF3AC
:1012B0005F8F0023136080F3108801204042F3E722
:1012C0000020F1E73C20000070B501000469EFF355
:1012D000108C72B620680028FCD0BFF35F8F02200C
:1012E0000D5E4C6968004019C00024180869002D83
:1012F00036DB26884E80BFF35F8F002606608CF3B6
:101300001088E36063880498013320615B040598CA
:101310005B0CA26060611A1C002B1FD093B22804E2
:10132000628018430A69EFF3108C72B61368002BC1
:10133000FCD0BFF35F8F8B8823808D800B69BFF358
:101340005F8F00221A608CF310880B7801329A406C
:10135000CB6808498C4663441A6070BD0122DDE702
:10136000BFF35F8F002303608CF31088012040429D
:10137000F3E7C0463C20000010B543890A149342AD
:101380001ADD53009B184269DB00D3180469EFF3A0
:10139000108C72B62268002AFCD0BFF35F8F5A8887
:1013A000090494B2090C8A4208D00369BFF35F8F25
:1013B00000221A608CF31088002010BD80221202D7
:1013C00014435C80012302698371BFF35F8F0021A6
:1013D00011608CF31088044902788C469340C268EF
:1013E000012062441360E8E73C2000004078704729
:1013F000F0B506000F0006246442E517C646A4199E
:101400007D4100B582B08D4214D811D000F0E4F9CE
:1014100022002B00121A8B41002B15DC002B44D02C
:101420003000390000F016FA02B080BCB846F0BDBA
:101430008442EBD90024002500F0CEF922002B00D5
:10144000121A8B41002BE9DD00F0C6F922002B00B7
:10145000121A8B41002B0ADB00230193144B22004C
:10146000009314482B00FFF72FFF0130D8D0A0467F
:1014700029000024104A1148536A994204D8956AF9
:101480004545CDD29942CBD10568EFF3108C72B6A9
:101490002B68002BFCD0BFF35F8F0368BFF35F8F17
:1014A0001C608CF3108820BFE6E7002AB8D0CBE799
:1014B000E50D00100810002000400540B026002077
:1014C000F0B5C64600B582B004000D0000F084F906
:1014D00024184D41002D02DA01242F4D64420626C6
:1014E0007642F71736196F41AF4214D811D000F089
:1014F00073F932003B00121A8B41002B15DC002BD4
:1015000046D02000290000F0A5F902B080BCB84602
:10151000F0BDA642EBD90026002700F05DF93200AD
:101520003B00121A8B41002BE9DD00F055F9320027
:101530003B00121A8B41002B0ADB00230193174B4F
:101540003200009316483B00FFF7BEFE0130D8D0B2
:1015500000233900B0469C46124A1348536A994208
:1015600004D8966A4645CCD29942CAD10668EFF3B0
:10157000108772B63368002BFCD0BFF35F8F03680F
:10158000BFF35F8F66461E6087F3108820BFE5E7D4
:10159000002AB6D0C9E7C046FFFFFF7FE50D001067
:1015A0000810002000400540B0260020F0B5C646D7
:1015B00000B582B0040000F00FF9FA2206000F0017
:1015C000200000230021920000F072FD8019794173
:1015D00004000D1E02DA01242E4D644206267642D6
:1015E000F71736196F41AF4214D811D000F0F4F854
:1015F00032003B00121A8B41002B15DC002B46D029
:101600002000290000F026F902B080BCB846F0BDE9
:10161000A642EBD90026002700F0DEF832003B009E
:10162000121A8B41002BE9DD00F0D6F832003B00A6
:10163000121A8B41002B0ADB00230193164B320058
:10164000009316483B00FFF73FFE0130D8D000233F
:101650003900B0469C46124A1248536A994204D84F
:10166000966A4645CCD29942CAD10668EFF31087F4
:1016700072B63368002BFCD0BFF35F8F0368BFF3F3
:101680005F8F66461E6087F3108820BFE5E7002A5B
:10169000B6D0C9E7FFFFFF7FE50D0010081000205E
:1016A00000400540B0260020F0B557464E46DE46C5
:1016B0004546E0B506000F0085B0EFF30583994677
:1016C0008B46002B12D0384900204B6ABB4206D310
:1016D0008A6ADB1B591E8B41B2424041184305B058
:1016E000F0BCBB46B246A946A046F0BD2F4B9A4679
:1016F000DB68984653461B784046039300F064F835
:101700004246039B040004339B009B580D001B1AA8
:1017100039003000001BA941894510DC0DD020BFE5
:10172000214A0020536A5B45D9D3926ADB1B591EBC
:101730008B41B24240411843D1E78342EFD900F0D8
:101740004BF832003B00121A8B41002B1ADB0023AE
:101750000193174B3200009350463B00FFF7B4FD56
:10176000011E0FDD104B5A6A5A451BD39B6AB342C8
:1017700016D35046FFF700FE0B4A0020536A5B4524
:10178000ADD3D2E7084A0020536A5B45A7D30020B7
:10179000926ADB1BB24240415A1E934118439EE7B6
:1017A0005A45E6D120BFE4E700400540081000207C
:1017B000E50D001010B5024A0248FEF763FF10BDA8
:1017C00040610010F42000200300416A0A00986A7A
:1017D000596A8A42FAD17047034B596A0A00986ADB
:1017E000596A9142FAD170470040054070B5040033
:1017F0000D00174A536A1900966A536A8B42FAD150
:101800003000190024184D41AB4216D813D0104BAC
:101810002A005B6A9D4203D90D494B6A9342FCD36F
:10182000934207D10A4A02E0516A994202D1916A71
:10183000A142F9D370BDA642E9D9054B5B6A1C00F1
:101840005A1CEFD0012201246442E5175242E3E71B
:1018500000400540064A536A9942FCD807D1044B20
:1018600002E05A6A914202D19A6A9042F9D87047CE
:1018700000400540F8B5040006200D0000F078F99E
:10188000002844D0374B3849E3185A1E9341802230
:10189000120494465B429B0D344A9B0563441360DB
:1018A000334A136018000A689043FBD12D4B314A2C
:1018B000E31859424B4180215B00490006209952B0
:1018C00000F056F92900C00000F060FB0130C309A8
:1018D0001ED1402701226262A362266BF30722D445
:1018E000E36A254B0620E51800232B60266300F0F1
:1018F0003FF93900800000F049FB7023E26A5A404A
:101900000E3313402B601D4B23630323A364F8BDE8
:101910001B4A93421ED900231A4A1B4F6262A362DC
:10192000266BF307DCD5194B144AE3181A60656A75
:10193000A36A0620AD01ED1800F01AF9144900F071
:1019400025FBAD020100280000F020FB0021FFF77D
:101950004DFFC5E74006800E9F011A003F180300A7
:10196000B9E7C0460080FCBF08C0004000E000406E
:1019700000F00040C02600202C10000001030000F1
:10198000FEFF0000FFFF0000C0FF3F0030300000FE
:101990004E0E0000F8B5DE464E4657464546E0B5C9
:1019A0008B4605000A991800160000F0EFFA0A9B12
:1019B0006C001F02324B64199C46A40064446368A7
:1019C00081469F4200D967602B1FDBB29846012BEE
:1019D00030D9C02380229B01E31812011A60294BE1
:1019E000AD0059599A4600291BD17301E02622689F
:1019F00053401E40802342465B01E3181E60012ACB
:101A000030D9802380229B01E31812011A605346CB
:101A10004A4667605A51F0BCBB46B246A946A0464A
:101A2000F8BD586900F0B2FA013043001B18033BBF
:101A3000FDD2DAE75B46012BCBD1C02303229B0109
:101A4000E3181A60023AA3681A42FCD07301E02638
:101A50002268AD0053401E4080230A4A5B01924633
:101A6000E3181E605A462168514003220A401A605A
:101A700001225B469A40A3681A42FCD0C1E7C046E7
:101A800000800040FC200020F0B546464F46D64678
:101A9000C0B51F00344B44009C462418A400644485
:101AA000636888461600FF2B02D880235B006360C2
:101AB000031FDBB29A46012B30D9C02380229B0141
:101AC000E31812011A60294B8500595999460029DB
:101AD0001BD17301E026226853401E4080235246EA
:101AE0005B01E3181E60012A30D9802380229B010C
:101AF000E31812011A6080235B0063604B465F515C
:101B0000E0BCBA46B146A846F0BD586900F03EFABE
:101B1000013043001B18033BFDD2DAE74346012B9B
:101B2000CBD1C02303229B01E3181A60023AA368B9
:101B30001A42FCD07301E0262268850053401E4003
:101B400080230A4A5B019146E3181E6042462168E1
:101B5000514003220A401A60012342469340A26882
:101B60001342FCD0C1E7C04600800040FC200020AA
:101B7000014B8000C0587047FC200020F8B50400DD
:101B800021481E0017000D0000F000FA0100380087
:101B900000F0FCF9069B36041B031E432368002B50
:101BA00020DB1A4B1A49E3185A1E934180229201F6
:101BB00094465B421B0B174A1B0363441360164A8F
:101BC00013601F000A689743FBD1144B2560E2188D
:101BD0002123A06013602368002BFCDA0823E66051
:101BE0001360F8BD3F2322681340AB42D9D1A368EC
:101BF0001B051B0D8342D4D1EE22E368D2021340B1
:101C0000B342CED1EDE7C046001BB7000040FDBF98
:101C100008C0004000E0004000F000400430000038
:101C200010B580241C4BE4051C6000281AD0012349
:101C30001A4C18431A4BDC611A4C44401C6259621E
:101C400098628021144BC90519601748174908602C
:101C5000E021C9041960002A07D18022144B120622
:101C60001A6010BD0E4BD861EBE753019B1A9B0025
:101C70009A18802312015B049A4209D213000D497D
:101C80000B60074B5A608022094BD2051A60E8E7C7
:101C9000094B1A00F3E7C04600B00540D3C007B0B7
:101CA000008005402D3FF84FFCFF01000820014057
:101CB00000A0054064250020FFFFFF008023024AAA
:101CC0009B000B43D362704700800540002310B592
:101CD0000100988A1B8B984710BDC046162310B58B
:101CE0000100188802331B88984710BDF8B5474695
:101CF000CE4680B50F1E18D0142399460433040035
:101D00000025012698464B461888434621681B88C3
:101D1000984701C4431E984101350640AF42F2D1B5
:101D20003000C0BCB946B046F8BD0126F8E7C04651
:101D3000002370B504000D00988A05491B8B984755
:101D400003000020002C01DB0130A040290098474F
:101D500055420000AA23064A1B0113608D235B0035
:101D6000D3600449044B19605368002BFCDA7047B8
:101D70000040024000B0FA00006002407047C046D8
:101D800010B50148FEF750FC6461001070B5074DB6
:101D9000074EB54209D20024013E761BB60808CD95
:101DA000984723000134B342F9D170BDB0600010F0
:101DB000EC600010054B064A06491A60064A074BBC
:101DC0001A6010000B689843FBD1704700E0004098
:101DD000BFCDFBFE08C00040FE7F3C0000F000408D
:101DE000044BDB6C002B03D18022034BD2021A6020
:101DF0007047C046000011504C201150044A054B5A
:101E00001A60054A1368DB018033FBD17047C04676
:101E1000FFFFFF0100F0004008C000404022034BDC
:101E20009A675A671A67DA667047C04600F0014041
:101E300010B5FEF7ABFC10BD70B5044D044CA9689D
:101E4000C022200000F028FAAC6070BD00ED00E078
:101E500000000020002310B5294C82B0A367FFF7D3
:101E600079FF0122274B1A60636C012BFCD10322FE
:101E7000254B1A60224A936B012BFCD1013300934E
:101E80000121224A22480433FFF778FE052301216D
:101E90000093204A2048FFF771FE0022022104200F
:101EA0001E4BFFF7F1FD0022012105201C4BFFF71F
:101EB000EBFD0022002107201A4BFFF7E5FD002271
:101EC00000210820174BFFF7DFFD8023DB00009384
:101ED000002200210920134BFFF75CFD0022104B6C
:101EE00000210620FFF7D0FD0420FFF741FE0E4938
:101EF00000F04CF801000020FFF7E0FE02B010BD3A
:101F0000008000403CB0004030B00040002F6859D5
:101F100000800240008C864700C00240001BB700D2
:101F200040597307006CDC0240420F000148042155
:101F3000014B184720100020ED1C0010124A936F2F
:101F40009B0815D29066D166002905D0FFE7FFE710
:101F5000FFE7516F106F704704B580210906C21763
:101F60005140002800D0C84304F062F8002104BDAD
:101F7000F0B5146E556E576F166FFFF7E3FF1466DA
:101F8000556657671667F0BD000000D0114A936F81
:101F90009B0813D210665166002905D0FFE7FFE7C2
:101FA000FFE7516F106F704704B5002801D0002083
:101FB000C04304F03DF8002104BDC046F0B5146EE6
:101FC000556E576F166FFFF7E5FF14665566576736
:101FD0001667F0BD000000D010B50148FEF724FBE5
:101FE00070610010132370B51D78012D19D014DD18
:101FF0001D48FFF773FE06001C48FFF76FFE1C4CE0
:1020000080223100200000F047F9022D06D0194847
:10201000FFF75CFE184B186070BD154C174BA3649E
:10202000F5E7174B124C23606360A360E360236104
:102030006361A361E36123626362A362E36223637A
:102040006363A363E36323646364A364E36423655A
:102050006365A365E36523666366A366E36623673A
:102060006367A367E367D9E7534400005346000062
:10207000D01700204C330000AC2500208520001034
:10208000D91F001007B5604601880A0A0230DF2A0E
:10209000FAD1C9B2820804D30288408800041043F0
:1020A00000E00068014A5050039007BDD01700209F
:1020B00051434343C9188C46110C83B24B4310B4AF
:1020C000040C614392B280B2504362431C041B0C67
:1020D000001910BC59411304120CC018514161443D
:1020E000704700004840414048400E4B5B6818472D
:1020F0000C4B1B6818470C4A936F9B0802D2094B84
:10210000DB681847F0B5146E556E576F166FFFF702
:10211000F6FF054A1466556657671667F0BD014B12
:102120009B681847B0250020000000D007B5484044
:102130004140484001E0C04607B54200120E03D0BE
:10214000FF2A03D1420218D8C00DC0054A00120E62
:1021500003D0FF2A03D14A020FD8C90DC9050122B5
:10216000414005D4414001D5814207BD884207BDA9
:102170000143491801D0C043001807BD00B5FFF75F
:10218000DBFF01D9002000BD012000BD491A002855
:1021900008D1084670470000C10FC90700D540426A
:1021A000002817D0F44603B40B4B1B68984706BCB5
:1021B00081409E384042803107D20B0607D049004B
:1021C000490AC0051043084360470130F8E7490A4F
:1021D0008902F5E770470000AC250020014B5B6ADF
:1021E00018470000B025002010B50148FEF71CFA82
:1021F00030620010132310B510481C78FFF76EFDF5
:102200000100012C0AD003DD80220D4800F044F8C3
:102210000C48FFF75BFD0C4B186010BD084C5422B6
:10222000200000F039F82200084980322368002B92
:1022300000D1216004349442F8D1E9E7534600000C
:10224000B02500204C330000AC250020E92100100F
:1022500010B5040003F01EFA002804D0034B041943
:102260009C4200D810BD0248FEF7DEF900000420B1
:102270008861001010B503F017FA10BD0148042161
:10228000014B184730100020ED1C0010014B1B685B
:102290001847000030100020014B5B681847000011
:1022A0003010002010B5002800D110BD00F04EF90C
:1022B000FBE7C04610B5094A0300146884B0002C3F
:1022C00008D0012200910648524203A9A0470120EC
:1022D00004B010BD00F084F90020F9E7602500206B
:1022E000A522001000BEFDE7094A0300106800287F
:1022F00005D00849C3188B4207D8136070470648B9
:102300000449C31810608B42F7D901204042F5E719
:102310005C21002000000420E826002010B5FFF713
:10232000E1FFC04670B5FFF731FD074D074EB542DE
:1023300009D20024013E761BB60808CD9847230039
:102340000134B342F9D170BDEC600010F4600010AC
:10235000030010B5080011001B68984710BDC04667
:10236000F0B5C64600B5437D07000C001600002BF3
:1023700046D0002A17DD0B780A2B24D0002398467C
:10238000012E13D001252900635C01350A2B26D0CC
:10239000B542F8D1464509DCA419013C23780D3B30
:1023A0005A4253413B7580BCB846F0BD4346E018E5
:1023B000A419F11A013C3B68984723780D3B5A4217
:1023C00053413B75EFE7037D002BD7D102210F4826
:1023D0003B689847012EDFD001239846D2E7631E61
:1023E0005B5C0D2BD4D0884504DA4346C91AE0184B
:1023F0003B689847022105483B68A8469847C7E7CD
:102400000368110020009847CDE7C04630630010F4
:10241000F0B54546DE464E465746E0B583B0914698
:102420001C0080460D00FFF7D7F90023304A121830
:102430004B41002B02DA01222E4B52422E4908005A
:102440008A4603F015FE07006B1C03D1404603F0DB
:1024500055FC0500002C27D0284E294B1C68002C69
:1024600018D04B46002B21D1264B994602E0246917
:10247000002C0FD02368002BF9D04B461B68002B93
:1024800001D09C42F3D120002A004146B047246984
:10249000002CEFD1002F26D1280003B0F0BCBB46A2
:1024A000B246A946A046F0BD174ED6E7154B994651
:1024B0000A239B4602E02469002CEBD02368002B02
:1024C000F9D04B461B68002B01D0A342F3D12A0060
:1024D00041462000B0476B465A462000DA71D91DAC
:1024E0000122B047E7E7504603F09AFDD4E7C04623
:1024F00040420F00FFFFFF7FF01500206123001016
:102500004C21002058210020512300100A4A136852
:10251000002B05D10CE01A001B691032002B07D0EC
:102520008342F8D1002902D11869106019617047FF
:102530000029FCD01060FAE74C21002010B500F013
:102540003BF900F077FB012010BDC046F0B5CE4648
:10255000474680B583B06B460600DD1D2870FFF747
:102560003BF90023194A12184B41002B02DA0122D1
:10257000174B524217490800884603F079FD164B65
:1025800081461C68002C14D0144F02E02469002CF2
:102590000FD02368002BF9D03B68002B01D09C4260
:1025A000F4D1200001222900FFF7DAFE2469002C73
:1025B000EFD14B46002B05D1300003B0C0BCB9466B
:1025C000B046F0BD404603F02BFDF5E740420F005A
:1025D000FFFFFF7FF01500204C2100205821002034
:1025E00070B5040003F08AFB0123010005000122FD
:1025F0002000FFF70DFF084B1C68002C06D0636815
:10260000002B05D098472469002CF8D1280070BD14
:102610002469002CF3D1F9E74C210020F0B5002902
:1026200015DD0E4B0D271A680D4B0E4CD3185D426D
:102630006B41451820215B001E5F0478A64207D03D
:1026400093691942FCD101301460A842F5D1F0BD64
:1026500093691942FCD11760F2E7C046C4260020F6
:102660000080FCBFC0260020204B70B504000D1E6A
:102670001E682ADD002010211D4B013C1A68936959
:10268000194214D1013093691942FCD113682354C3
:102690008542F4D1002E08D050239363516B183B30
:1026A0000B4014498C4662441360280070BD002E14
:1026B00008D050239363516B183B0B400D498C4657
:1026C000624413600028F1D10CE0002E0AD05022A1
:1026D000074B1B689A63596B183A0A4005498C46A8
:1026E00063441A6003204042E0E7C046E020002037
:1026F000C426002034100000064B10B51B68002BC8
:1027000006D00021044A12689163044A1068984771
:1027100010BDC046E0200020C4260020E820002094
:102720000822034B19688B691A42FCD17047C046D6
:10273000C4260020F8B51A4F1A4B3A680500D31882
:1027400058424341184E14331C003368002D02D008
:10275000002B0FD0F8BD002BFCD00021200095638A
:10276000FEF734F820001149FEF78CF9104B356064
:102770001D60EFE70E4B200019600C493560FEF735
:102780005DF801212000FEF721F850223B689A6392
:10279000596B183A0A4007498C4663441A60D9E7D6
:1027A000C42600200080FCBFE0200020F926001095
:1027B000E8200020341000000D4B10B51B780D4BA5
:1027C0000D4C1B780D4B02211B780D4B0020236014
:1027D000FDF7C2FE02210120FDF7BEFEE1212068C7
:1027E0004902FFF747F801210648FFF78FFE10BDA9
:1027F000E8650010E4650010C4260020E0650010C4
:1028000000400340401000207047C0460022014BAA
:102810001A707047E12600204B790020FF2B0BD166
:102820008B79002B08D1CB79012B05D1082A03D94C
:10283000024B8A7809301A707047C046E1260020A2
:102840000120704710B5012913D11249537910792D
:1028500009781B0203430020994200D010BD537831
:10286000012B08D0022BF9D1642200210020FFF7B0
:10287000D7F90120F2E7D37891781B021943480A6F
:10288000DB0501D4012040427F238A05D20F194085
:10289000FFF74EFAE1260020004870471864001048
:1028A00070B5050014000120012909D153780020DA
:1028B000012B05D1637912791B021343072B00D03A
:1028C00070BD21002800024A9F3301F055FAF7E756
:1028D00070630010012303700048704750630010BC
:1028E0004B780A781B0213438A7810B512041A43F6
:1028F000CB781B0613439622D200934200D010BD22
:102900000022012011004042FFF712FA024B18602A
:10291000024B19607047C046E4200020EC200020E4
:1029200010B5024B1878FDF76FFF10BDE2260020AE
:10293000154B70B51A68002A22D0EFF3108172B6D9
:1029400010680028FCD0BFF35F8F00200F4A596049
:1029500010701B68BFF35F8F186081F3108800242C
:1029600000250B4E3078FDF743FF002804D10024EA
:1029700000252900200070BD3078FDF745FFF8E7FD
:10298000FA240025A400ECE788250020E326002097
:10299000E226002070B5040000200E0001F00AFBC2
:1029A000002834D0002001F01BFB00282FD0FEF7B8
:1029B00013FF0023174A12184B41002B16DB164D4C
:1029C000280003F055FB002821D0002001F0F2FA86
:1029D00000280FD101200021404200F001FD032416
:1029E0006442280003F01CFB200070BD01220B4B49
:1029F0005242E4E7002001F0F3FA0028EAD0210077
:102A00003200002001F0F6FA041EEAD1E7E70324C1
:102A10006442E9E740420F00B8260020FFFFFF7F35
:102A200010B5FEF7D9FE00230D4A12184B41002BBA
:102A300002DA01220B4B52420B4C200003F018FB30
:102A400000280CD001200021404200F0C9FC0020E9
:102A500001F014FB0028F5D1200003F0E1FA10BDCD
:102A600040420F00FFFFFF7FB8260020F8B5DE468A
:102A7000574680B505000C00FEF7AEFE0023364A2F
:102A800012184B41002B02DA0122344B52423449D6
:102A900008008A4603F0ECFA002803D1C0BCBB460C
:102AA000B246F8BD002001F085FA00284AD0002681
:102AB000002C43DD2B4B9B4614E0A919002001F0AC
:102AC00017FB070001200021404200F089FC002094
:102AD00001F0D4FAFEF780FE224BF6191860596017
:102AE000B4422BDD002001F023FBA71B0200B842FB
:102AF00000DD3A00002AE0D101200021404200F030
:102B00006FFC002001F0BAFA002001F053FA00280F
:102B100014D0002001F00CFB0028E1D1FEF75CFE90
:102B20005B460F001A685B68002184460E48121845
:102B30004B419F4202D8D3D19445D1D9504603F09E
:102B40006FFAABE700200021064B18605960504631
:102B500003F066FAA2E7C04640420F00FFFFFF7F86
:102B6000B82600207817002020A1070030B52A4C95
:102B700085B00021200003F063FA00281CD1274B08
:102B80001A68002A16D0EFF3108172B61068002878
:102B9000FCD0BFF35F8F01242148596002781B6885
:102BA000D2B20470BFF35F8F0020186081F31088E9
:102BB000002A17D005B030BD01200021404200F0AE
:102BC0000FFC002001F00CFA0500200003F028FAA9
:102BD000002DEFD0134B1B68002BEBD0124A10686E
:102BE0009847E7E7FEF704FB0400FEF7F5FDFA223D
:102BF0000023920012184B41002B02DA01220B4BEA
:102C000052420121029100210191094920000091C5
:102C1000FEF7F2FACEE7C046B8260020882500204D
:102C2000E3260020E4200020EC200020FFFFFF7FAF
:102C300031290010D02310B51B0684B01C68FEF7A4
:102C4000D7FAFEF7D3FBA04202D0002004B010BD9B
:102C5000294B002100201B7801F05EFD2748036806
:102C6000002B45D00120FEF751F8FF23244C2549C5
:102C700020701840FDF7E2FD20780121FDF7A6FD48
:102C80000520FDF7C9FD002824D1082200211E4897
:102C9000FFF7FCFAFEF7ACFA0400FEF79DFDFA22FE
:102CA0000023920012184B41002B02DA0122174B2D
:102CB0005242012102910021019115492000009109
:102CC000FEF79AFA0028C0DB12480121FFF71EFC2C
:102CD0000120BBE70120FDF747FD0B4B0100180069
:102CE000FEF776F8002205200B49FDF7D1FDEBE752
:102CF000FEF752F8B6E7C046EC650010B826002093
:102D0000E22600206D2B001088250020FFFFFF7FAA
:102D10003129001058100020212900100048704768
:102D2000B4640010004870476064001010B50400DF
:102D300017480378002B20D0002C06D1154B1648DD
:102D40004380063BFF3B038010BD052C1DD8134B71
:102D5000A400E05812490123013804E001330A803D
:102D60000231142B0DD0C25C002AF7D1C022DBB295
:102D70005B00920008481343E5E7112100F01AF8C0
:102D8000DAE7CA2304489B00DDE70020DCE7C04601
:102D9000C8260020090400002421002048640010F7
:102DA0002621002010B5024800F0D8F810BDC0461A
:102DB000A025002030B54B1E012900D1A7E0664AAE
:102DC00011780D092C0030349F2900D9A2E004703D
:102DD000012B00D1BEE00F21147821400C003034CB
:102DE000092900D998E04470022B00D1B2E0547850
:102DF0002509290030319F2C00D990E08170032BE8
:102E000000D1A7E00F2121400C003034092900D95E
:102E100087E0C470042B00D19CE094782509290038
:102E200030319F2C00D97FE00171052B00D191E05A
:102E30000F2121400C003034092900D976E044717B
:102E4000062B00D186E0D4782509290030319F2C4B
:102E500000D96EE08171072B00D17BE00F2121406A
:102E60000C003034092966D8C471082B00D171E0F8
:102E700014792509290030319F2C5FD80172092B64
:102E800068D00F2121400C003034092958D84472F1
:102E90000A2B5FD054792509290030319F2C52D854
:102EA00081720B2B56D00F2121400C0030340929A0
:102EB0004BD8C4720C2B4DD09479250929003031A0
:102EC0009F2C00D9073101730D2B43D00F212140D6
:102ED0000C003034092901D937310C0044730E2B12
:102EE00038D0D1790C09220030329F2900D907321D
:102EF00082730F2B2ED00F220A4011003731092A7E
:102F000001D830321100C173102B23D010300023B0
:102F1000037030BD07345AE737310C0063E70731DF
:102F20006CE737310C0074E707317DE737310C006F
:102F300085E707318EE737310C0095E707319DE7CC
:102F400037310C00A3E70731AAE737310C00C47210
:102F50000C2BB1D1C018DAE7A025002010B588B03D
:102F600004000D2200216846FFF790F90D22002190
:102F700004A8FFF78BF94B236A466846137004A92F
:102F80000D2203F045F81521082220006944FFF7BF
:102F900083F908B010BDC046F8B500F047F90C231E
:102FA000194DFF22AB6705201849FDF771FC184C3D
:102FB000402200212000FFF769F940270023012665
:102FC0002121144A66702783A260136063545F3125
:102FD000618445396354104A10496360E260278771
:102FE000A1620B606362E26203F00AF880239B0532
:102FF0002E64EB6490230A4A0120EA508022094B98
:103000005202DA64F8BDC04600001150F9040020F5
:1030100060210020840010500001105080001050EA
:1030200010D001000020115010B501210520FDF73E
:10303000CDFB10BD10B500220021024800F016F9AA
:1030400010BDC04680210020044B1970002904D017
:1030500080219023024A8902D1507047DD2600204A
:10306000002011500B785B0602D14B78052B00D065
:1030700070478A78014B1A60FAE7C0460000115089
:10308000F0B5C646C87800B58007830F1800012B3D
:1030900060D08F780A794B797F213940FC091B0277
:1030A0004E001343334D32195201AA18977001276D
:1030B0006740577000275B055B0DD7701383D07690
:1030C000B846CA00012C32D02B4FBC468F01624457
:1030D000BC46AC446746BA6047461760002932D008
:1030E000264AC90090466246414451603F223F3320
:1030F0009343022837D0224937190A687F01D31831
:103100000B602049EF19FA608B422ED836197601F0
:10311000AD19EB7E1C499B064A40134380221206E0
:1031200013436A681360012080BCB846F0BD174F96
:10313000BC468F016244BC46AC446746BA6247460F
:103140001760002908D1002364012C196360104B1B
:10315000E360E8E70020E7E70B4AC90090466246D3
:1031600041445162C2E75B00C5E7FEF709FEFA6819
:10317000CCE7C046602100208400105004001050AD
:1031800068250020FF0F10500000105080001050E4
:103190000001105010B502F033FF10BD10B57F20B4
:1031A0000C0020404000E409110000191A00034BF4
:1031B0004001C01800F05AF8012010BD6021002025
:1031C0007F23180000B5084083B00B4204D14B4266
:1031D0004B41084A013393668022C9094000064BDF
:1031E000401840010021C018120102F051FF03B045
:1031F00000BDC04600201150602100207F22130036
:1032000010B50B400A4200D110BDC9095B005B1824
:1032100004485B01C018002300220349C37002F078
:1032200037FFF1E760210020FFF7FFFF80220A4B04
:10323000520410B51A60094B09491A6010000B6856
:103240009843FBD18022002152010648FFF71EF867
:103250000922054B5A6710BD00E0004000F0004015
:1032600008C000400000105000001150002310B5AD
:10327000C3820133828283760161040002F010FF71
:10328000002804D080219023074A8902D1502000D1
:1032900002F0E6FE002802D00123237710BD2000B3
:1032A00002F0EEFEFAE7C046002011507047C0461B
:1032B0007047C04600207047002070477047C046E6
:1032C0007047C0467047C0467047C046024B5878AA
:1032D000431E9841C0B27047F01B0020024B187883
:1032E0004007C00F7047C046F01B0020F0B5D6461F
:1032F0004F464646C0B52F4B07009A461B780E0036
:10330000FF2B50D1002941D0002154222A48FEF73A
:10331000BDFF0022294C2A4B20001A70FDF73CFD0E
:10332000284B1C60284C2000143CFDF743FD200076
:1033300001F0FAFD254B264D1C60264B002B04D0D6
:103340002800FFF7C7FA244B186024490024894657
:103350002149002388462A7810E043461B68620111
:103360009B18002B12D05B68002B0FD098472A784F
:103370000134E4B2511C2300A14209DBA242ECD883
:103380009B1A5B014B445B68002BEFD100200BE0E4
:103390005346310038001F70FFF7FEFD0028F5D0BE
:1033A0003800FFF741FE0120E0BCBA46B146A8460E
:1033B000F0BDC0468C100020F01B0020E81B002050
:1033C000DE260020441C002084100020481C002021
:1033D000DC260020D5280010401A0020706500105F
:1033E000F0B5DE4657464E464546E0B5C84B91B06F
:1033F00002931B78FF2B00D13EE1C64BC64E9B4685
:103400005F46C64B0DAC0193C54B009335686A69A6
:10341000EFF3108172B61368002BFCD0BFF35F8FFF
:10342000A9612800210001F0AFFB6A69AB69BFF315
:103430005F8F0021116083F31088002800D11BE109
:103440006378082BE2D89B00FB589F466368002BEB
:10345000DCD0A0689847D9E77F222179AF4D0A4098
:103460005300EB189846C809804440460123303089
:1034700005799D430571057903339D430571002A44
:1034800000D100E14346A74A1B7D1278934200D346
:10349000EFE0A54A5B011568ED18002D00D1EBE0C7
:1034A000A36862792078AD69A847AFE79F4A13788F
:1034B000002B00D1E0E01378013BDBB213701378EE
:1034C000002BA3D10122954D01212B780420134319
:1034D0002B703423EA5C8A43EA54EA5C8243EA5460
:1034E0000133EA5C8A43EA54EA5C8243EA54237873
:1034F00000209B4600F09EFC602223791A40602A3F
:1035000000D1EFE0402A00D1F5E0DB06DB0E012B15
:1035100000D113E1022B00D1C7E0002B00D0E1E085
:10352000202A00D11CE2002A00D0DBE06379092BBD
:1035300000D9D7E07E4A9B00D3589F46774D2B7821
:10354000DB0700D462E7FFF7BFFE5FE7019BDB7894
:10355000DB0700D45AE76068FFF7AAFE56E76F4D15
:103560002B78DB0700D451E728780007C00FFFF75E
:10357000A9FE4BE723786A4999468B46694B6A490D
:1035800098468A4639001A7847460023B0460025F7
:103590004E46894610E053461B686A019B18002B73
:1035A00000D176E0DB68300098473A780135EDB21B
:1035B000511C2B008D4244DC9542ECD39B1A5B01DD
:1035C0005B44EFE7237858499946564B8A4698461C
:1035D0003100BB464E461A780025002347468946EF
:1035E0000FE053461B686A019B18002B55D0DB681F
:1035F000300098473A780135EDB2511C2B008D42CE
:1036000007DC9542EDD39B1A009A5B019446634414
:10361000EDE7019D542200212800FEF737FE10221D
:10362000FF214448FEF732FE28002022FF211430FB
:103630004E465F46FEF72AFE00F0F2FBFFF740FE23
:10364000E4E6364D542200212800FEF71FFE10222A
:10365000FF21281DFEF71AFE28002022FF2114302A
:1036600046464F46FEF712FE00F0DAFB2379AB70B8
:10367000CCE6501C984213DA11B0F0BCBB46B246FF
:10368000A946A046F0BDA3686279207800F0E6FB69
:10369000BCE646464F46214DE6E74E465F46CBE741
:1036A0001F4D9B1A5B015D19FAE67023217A0B42CC
:1036B00018D1C80982460F330B405B009846194861
:1036C000EB1853441B7D00789946834266D2164816
:1036D0005B01006881469944002A00D15FE14B46B6
:1036E000002B68D120780021FFF76AFD8021207827
:1036F000FFF766FD8AE6104800F09CFB0121584662
:103700000EAAFFF7CDF8002800D07FE6EAE7C04612
:103710008C100020C8640010481C0020F01B002002
:1037200070650010DC260020401A0020DE260020F4
:10373000EC640010F41B0020A1280010237A0F2B4A
:10374000D0D8CF4AEB181B791578AB423ED3691C11
:103750009942C7DB5D1BCB4B6D01ED18686900F02A
:1037600069FB012158466B690EAA9847002800D0D2
:103770004CE66022150023791D401A42B2D16379CC
:103780000A3B012BAED800F055FB63790A2B00D120
:1037900099E158460EA900F0D9FA37E6431C4B458B
:1037A00000DAF7E04B461B1A5B019946B5488144A5
:1037B000002A00D1F3E04B46586900F03BFB4B4632
:1037C000012158465B690EAA98479CE7AE4A5B0107
:1037D0001568ED18002DC1D184E7A37999466B785F
:1037E0009945D6D06B78002B00D033E14B466B70F7
:1037F000002B00D12BE148460138C0B2FFF792FA06
:10380000002800D17EE143780793022B00D079E1B4
:103810000122C179B1468B11491113400A40302170
:1038200012015B0113432A78A8468A4313432B7085
:1038300009239A4682445646BA46C37882781B02C8
:103840001343C31805938E4B04938E4B08938E4BF2
:1038500009938E4B0A93059BB34200D855E17378C8
:1038600001220B2B03D13378F278F6187378042BEE
:1038700000D044E1059B00279B1B9BB20693049B51
:103880000B921D78002303931BE0099A7B011568B6
:10389000ED18002D00D132E1310058462B69069A0F
:1038A00098478446082803D9069A824200D313E138
:1038B000049B01371D78FFB26B1C03979F4200DD0C
:1038C0001DE1BD42E1D8039B5D1B089B6D019C4639
:1038D0006544E1E76B780CAA023213705846012365
:1038E0000EA900F049FA91E5E3881A0AD8B20F2A26
:1038F00000D9F7E666499300CB589F460EA800F022
:103900009FFA5846A179FFF795FB02222B781343C3
:103910002B707BE5E388012B00D0E3E608222B78AF
:10392000584693430EA92B7000F010FA6EE5022062
:1039300029780CAB9A1C8B068908DB0F01400B43DE
:103940001380584602230EA900F016FA5EE5E388BC
:10395000012B00D0C6E608222B7813432B7018E702
:10396000237A0F2B00D9BDE6EB181D79444B1B7849
:103970009D4228D2444B6D011B685D19002D00D17A
:10398000B0E6686900F056FA012158466B690EAA44
:103990009847B8E6002A00D0A4E600239946627949
:1039A0000220130003928343012B15D0002A00D07C
:1039B00098E62B004344534430331B790CAA9B07F1
:1039C000DB0F0232BCE75A1CAA4200DA8AE6ED1A83
:1039D0002C4B6D01ED18D4E7E388002B12D1029B2C
:1039E0001878039B012B23D0FFF7EAFB4346022103
:1039F000EB18534430331A790A4301211A711A79AA
:103A00000A431A714B46002B00D1FFE4586900F0BD
:103A100011FA4B4601215B690EAA584698470020CF
:103A200000F008FA3523EB5CDB0700D5EEE4B0E6E6
:103A3000FFF7E4FB43460221EB18534430331A7975
:103A40008A431A711A7903998A431A71DAE7FFF7E0
:103A500037FC9EE600215846FFF7F6FA5846FFF776
:103A600099FBAB78074903930491054B06499846A7
:103A70001A780591002329001D008A461BE0C046E4
:103A8000DC26002070650010401A0020041C002075
:103A900014650010059B6A011B689B18002B4DD014
:103AA000DB685846984743461A780135EDB2511CF9
:103AB0002B008D422EDC9542ECD39B1A049A5B01BD
:103AC00094466344ECE70CAB9A1C584601230EA9BC
:103AD000157000F051F999E40B9A012A4FD0002A91
:103AE0003CD00023B07804E00133DBB20F71934285
:103AF00034D2C118C9B241440D79FF2DF4D04E46DD
:103B00004546574600236B70ECE54E465746FFF797
:103B1000D5FB3EE65546542200212800FEF7B6FBB1
:103B20001022FF21281DFEF7B1FB28002022FF21D3
:103B30001430FEF7ABFB039BAB7057E65546FAE734
:103B4000FEF7AAFE021E00D1CCE5D37891781B02C5
:103B50000B4358460EA900F00FF9D4E565463B002B
:103B60002A0031000A9800F07FFEAC46049B039ABD
:103B70001B7866440133934200DB6CE6BFE7174BCA
:103B800029699942ADD1079AABE7FFF793FB021E73
:103B900000D1A7E5584613780EA900F0EDF8B2E57C
:103BA0002189FFF7C3F8021EF4D19BE5022A0FD04A
:103BB000FFF782FB021EC8D194E5FFF7AFF8021EA3
:103BC00000D18FE5122358460EA900F0D5F89AE5EA
:103BD000FFF7A8F8021EB8D184E5C04631420010B4
:103BE000F8B557464E46DE4645460C00E0B5160091
:103BF0001F00002A3CD0702398461E4B00259B4690
:103C00001D4B9A461AE05B461B78200099465346A6
:103C1000997800F0EBFD00281CD021004846FFF702
:103C20002FFA002816D0A378DA09012A19D00A9AA7
:103C3000013513702378E418B54219DA6378052B3F
:103C400008D1E3789B079B0FBB4203D14246A37880
:103C50001A42D8D00020F0BCBB46B246A946A046C6
:103C6000F8BD0B9A013513702378E418B542E5DBF3
:103C70000120F0E78C100020F01B0020702270B5AE
:103C80008B780C001A4201D0002070BD064B20003A
:103C90001D78064B997800F0A9FD0028F4D021008A
:103CA0002800FFF7EDF9F0E78C100020F01B002052
:103CB0000B007F2010B51840DB0934334000044A64
:103CC000C018044B1168C01800F04CFD10BDC04670
:103CD000441C0020F01B00200B007F2010B5184072
:103CE000DB0934334000044AC018044B1168C01883
:103CF00000F060FD10BDC046441C0020F01B0020F9
:103D000070B57F240F480C4064000419CD09641974
:103D100030342079C00701D5002070BD01262579F7
:103D20000948354300782571FFF738FA0028F4D1A7
:103D3000012223799343237123790332934323711F
:103D4000EAE7C046F01B00208C10002070B5094C3B
:103D50000600082220000D00FEF79EFA00238021B5
:103D6000E360A3602B783000994300220023FFF723
:103D7000C7FF70BDD01B0020F8B5CE464746904621
:103D8000254E80B58146082230000D001F00FEF749
:103D900083FA4346B3600023F381EC79AB792402C4
:103DA0001C43231CBC4200D93B1C9FB2B381002C96
:103DB0000DD0002F17D04246002A2BD0402F1BD801
:103DC0009FB233787F2B1CD80021144A0FE080214A
:103DD0002B780022994348460023FFF791FFC0BC8F
:103DE000B946B046F8BD7F230022317899433B00A5
:103DF0004846FFF785FFF2E740239FB233787F2BD9
:103E0000E2D9064C3A0041462000FEF745FA8021EF
:103E10002200ECE70020E2E7D01B0020901B0020EE
:103E200010B5142200210248FEF730FA10BDC0463A
:103E3000D01B0020014B18617047C046D01B0020EA
:103E400010B5054C010008222000FEF725FA0023DA
:103E5000A360E36010BDC046D01B002070B5384C95
:103E60001D0023780600DA09C9098A4210D0002013
:103E7000002D00D070BD21003000FFF7F3F823695A
:103E8000002B03D022000321300098470120F1E7E6
:103E90007F2B06D8A068002834D02A002949FEF7D5
:103EA000FBF9E289A1685219E38892B24919E281CB
:103EB000A160934214D03F2D12D9A389981A051CF2
:103EC00080B240282AD82078ADB27F2828D8002197
:103ED0009A4232D01B4A2B003000FFF711FFC9E78E
:103EE0002369002B05D022000221300098470028CA
:103EF0000AD0802123780022994330000023FFF765
:103F0000FFFEB7E70020B5E700213000FFF758F9C2
:103F100030008021FFF754F90120ABE74025D2E7BC
:103F20009A4207D0074C2A002000FEF7B5F98021FD
:103F30002200D0E780210022CDE70022CBE7C04657
:103F4000D01B0020901B002070B50400FFF7BEF9C5
:103F5000002800D170BDFFF7C1F90028FAD1C823AD
:103F60006343124DEE18F1780029F3D010335D1938
:103F7000280000F0F3FD3F28ECD90020F178FFF78E
:103F800097FE0028E6D0280000F0E8FDF1783F28F1
:103F900007D9074BE201D21800204023FFF7B0FEFB
:103FA000D8E70020FFF798FED4E7C046C81A0020E3
:103FB000441A002010B50400FFF788F9002801D149
:103FC000002010BDFFF78AF90028F9D1C82262430A
:103FD000024B01309B181B791840F2E7C81A0020E9
:103FE000C82310B543430248181800F099FD10BDCE
:103FF000D81A0020F8B5C824802344431C4F10343D
:1040000005003C195B029A4200D31A4A200092B282
:1040100000F008FE0600FFF759F9002801D1300032
:10402000F8BDFFF75BF90028F9D1C8236B43FF18EF
:10403000FB78002BF3D0200000F090FD3F28EED954
:104040000020F978FFF734FE0028E8D0200000F0C7
:1040500085FDF9783F2807D9074BEA01D2180020DF
:104060004023FFF74DFEDAE70020FFF735FED6E7E5
:10407000C81A0020FFFF0000441A0020F8B5040011
:10408000FFF724F9002801D10020F8BDFFF726F939
:104090000028F9D1C82565432E00134F2436F619A0
:1040A000300000F03DFD0028EED07F190020B978E7
:1040B000FFF7FEFD0028E7D00C4DE401651929004B
:1040C0004022300000F0AEFDB978041E08D0030095
:1040D0002A000020FFF714FE0028D5D02000D4E7E6
:1040E0000020FFF7F9FDCFE7C81A0020841A00204E
:1040F00070B5C82444430C4B0500E41880235B02D0
:104100009A4200D3094A200092B200F051FE060004
:10411000200000F005FD3F2801D8300070BD2800C8
:10412000FFF7ACFFF9E7C046EC1A0020FFFF0000E4
:10413000C82310B543430248181800F00FFD10BD06
:10414000EC1A0020F0B50025184C83B0C8220021DD
:104150002000FEF79BF8164B21001D70FF236371B2
:10416000E1235B02A360200008234022A3733831BF
:104170000095073B103000F09DFC27000123210033
:1041800020002600402278310093B837243000F018
:1041900091FCC0363800FCF7FFFD3000FCF7FCFD59
:1041A000E56127622663656303B0F0BDC81A00208D
:1041B000C41A00200A4A116B136A00290CD0002B84
:1041C00007D00023D36153631363002313620120DC
:1041D000704753631363FAE7002BF8D0D161F4E71B
:1041E000C81A002070B50F4C052200212000FEF7F0
:1041F0004DF80D4D2B78DA0707D50C4C9B070CD5E5
:104200000121200000F0B0FE70BD2000103000F051
:104210008BFE2B78054C9B07F2D4200000F084FE27
:10422000EEE7C046C81A0020C41A0020EC1A00208D
:10423000F0B54B79060083B0022B02D18B79022BAB
:1042400003D00025280003B0F0BD204FBB78002B21
:10425000F7D18B7809253B700C780C196378242BE7
:1042600007D00CE02378E4185D196378ADB2242BF5
:1042700005D19542F6D90020FFF766FEE2E71A0065
:10428000052B15D0042AF6D163790A2BF3D1104BF4
:10429000277801930133009330000223E119023A99
:1042A000FFF79EFC0028CCD00E35ED19ADB2E2E749
:1042B00021003000FFF7E2FC0028C2D0A3787B7019
:1042C00023785D19E4186278ADB2DBE7C81A0020E4
:1042D000CA1A0020F8B560231400127805001340B4
:1042E0000020202B07D1304A6379277916781B02EA
:1042F0003B439E4200D0F8BD6378222B1AD007D8EA
:10430000202B34D0212BF6D101293ED00120F2E719
:10431000232BF0D1012940D00329F7D1234B002BC7
:10432000F4D0E178A37809020020194300E000BF2F
:104330000120E0E7012930D00329E7D101252E0033
:10434000A378E478023924021C43147126402432F5
:104350001000714000F008FE154B002BD6D062080B
:10436000002031002A4000E000BF0120C3E70129FE
:104370000BD00329CAD10F4B002BC7D00832002025
:104380001100FEF7ADFA0120B5E707232100280050
:10439000094AFFF7F1FC0120ADE721002800FFF7F3
:1043A000D5FC0120A7E7C046C81A00200000000085
:1043B00000000000E1280010D01A0020F0B54F46A0
:1043C0004646D646C0B5364D8046EA780C001F00FA
:1043D0008A423CD0AB788B4210D00020E0BCBA4679
:1043E000B146A846F0BD2F4B002B04D02E4800F05C
:1043F000ADFB002851D00020FFF7A6FDAB78A3420B
:1044000001D00120EAE7294B002B02D0002000E078
:1044100000BF0020FFF732FE0028F2D1244C20001C
:1044200000F07EFB0028ECD1002FEAD0BF06E8D1D7
:10443000243C4046A178FFF73BFC0028E1D0002354
:1044400000224046A178FFF75BFC0120C6E79AB244
:1044500010239A46174EAA443100504600F0A8FC9B
:10446000154B002BBFD06B79FF2BBCD0002FBAD0DF
:10447000F219914603E001364E45B4D06B7932789B
:104480009A42F8D1504600F061FB0028F3D1534620
:10449000103B597900E000BFEDE700E000BFAAE75C
:1044A000C81A002000000000D81A002000000000F8
:1044B000EC1A0020441A0020000000009322F0B5FE
:1044C000134C85B0002120009200FDF7DFFE230091
:1044D0002000802640270F4D4D337600FF332930D2
:1044E0000295009300220023002103970196FF30DC
:1044F00000F0D4F94035201D28340023012200218A
:10450000039702950196009400F0C8F905B0F0BD3C
:10451000941D0020141D002010B5054C200000F053
:10452000F3F920002538FF3800F0EEF9012010BD26
:10453000BC1E002070B5084C002520003130FF3033
:10454000257000F0F1FC20000C3000F0EDFC2A2377
:10455000FF33E554657170BD941D0020F8B55746D2
:104560004546DE464E46E0B54B7980460F00FF2BB0
:104570005BD1404B99462A234946FF33CB5C002B45
:1045800053D14E79002E50D1BB783C780B703B79DB
:104590003C19002B46D098235B004B449A460C23D1
:1045A0004B449B46A51803E0AC423BD22378E41869
:1045B0006378052BF8D1AC4234D221004046FFF796
:1045C0005DFB002831D0A3780136F6B2DB09012B60
:1045D00032D0504600F0A8FC2A234946A278FF3387
:1045E000CA54637922791B021343234A5B0594461C
:1045F0005B0D942163445A4253414A4602204900CC
:10460000525C5B00824313434A4653545146404632
:10461000083900F0E3F9002807D02378E4183B7943
:10462000B342C5D8E01B80B200E00020F0BCBB461E
:10463000B246A946A046F8BD584600F075FC5A4659
:10464000A3780C3A5371637921791B020B430A4911
:104650005B058C465B0D634459424B410220117946
:104660005B0081430B43594600200839137100F069
:1046700081F9D2E7941D002000FEFFFFF8B52A253E
:1046800006001F48FF35455D1F008D4215D0437958
:104690008B4201D00020F8BD1A4B002B04D0390406
:1046A0000020090C00E000BF174C3000210000F092
:1046B00061F900281DD00120EDE79A235B00C35A61
:1046C000002B0DD1114B002B04D000201049BAB2A1
:1046D00000E000BF30000F4900F080F90120DAE768
:1046E00096235B00C1583130BAB2FF3000F060FB56
:1046F000E8E73A002100300000F008F90120CAE79D
:10470000941D002000000000981D00200000000003
:10471000141D0020BC1E002000B5030083B000293A
:1047200010D00020012B07D80A78002A04D00C48AA
:10473000C2540120012A01D003B000BD1800FEF7C9
:10474000D5FDF9E701236A46002001A99380FEF711
:10475000CDFD0028F0D00122014B1A70ECE7C046D5
:10476000E41B0020037870B5DB0704000E00DD0FAA
:10477000002B17D103785B0701D5280070BD0121FC
:104780003000494201F064FC2378DB07DD0F002B89
:104790000AD123785B0708D4042223780125134328
:1047A000237002E00025E8E70025300001F038FC26
:1047B000E3E7C04670B50C00012106004942200025
:1047C00001F046FC33785B07DD0F002B04DB200093
:1047D00001F026FC280070BD3378DB0704D40422E6
:1047E000337893433370F2E70025F0E74379027999
:1047F0001B021343C2785B0592075B0D920F022ADE
:104800001DD0032A0CD00020012A08D102394A42C7
:104810005141124A9446614499424041C0B27047A6
:1048200002394A1E91410E4A494211408022D2006B
:1048300094460020614499424041C0B2EFE702290A
:1048400005D0002040229A424041C0B2E7E7054A25
:10485000981843425841C0B2E1E7C046FF03000048
:1048600040FCFFFF00FEFFFF8A1870B5914207D29F
:104870007F264C78052C04D00C7809198A42F8D888
:1048800070BD34008D782C4064000419ED09635527
:104890000C7809198A42ECD8F2E7C046F0B5C64652
:1048A00000B582B0150008AA40CA040017886A46FD
:1048B000928D012090460A00217802408143200019
:1048C000114321703A00009331000123083000F0B9
:1048D000F1F8002E01D0002F08D10A9B012063605F
:1048E0004346638002B080BCB846F0BD26001C364B
:1048F0003000FCF751FA0023002D01D033000026D0
:104900006361A661E9E7C04601207047F8B502245B
:104910000B7807001C4063425C41144B64421C400E
:10492000134B08009C4608300D001600644400F04C
:10493000F7F8002807D1002E05D0344203D1012416
:104940002B781C4201D00020F8BD38006978FFF7B1
:10495000AFF90028F7D02B781C42F4D100230022B5
:1049600038006978FFF7CCF9EEE7C04640FEFFFF5C
:10497000FF010000F8B50D000835060028000C0006
:1049800000F0CEF8002803D0012723781F4201D081
:104990000020F8BD30006178FFF78AF90028F7D0D1
:1049A00028006288616800F03DF9237805001F4007
:1049B00000280BD0002FEBD1030062683000617833
:1049C000FFF79EF90028E3D02800E2E7002FDFD1AF
:1049D00030006178FFF780F9DAE7C046F8B5CE46D7
:1049E000474680B58A8906000C000B78002A07D15B
:1049F00001251D4240D00020C0BCB946B046F8BDDC
:104A00009B0733D42A4B40259946270008373800A6
:104A100000F0A4F88542EED80122237890461A428D
:104A2000E9D130006178FFF743F90028E3D038007E
:104A300000F094F8424623781A40854231D8002A83
:104A4000D9D14A46638802401D1C934200D9151CE7
:104A5000ADB200226178002D00D062682B003000DA
:104A6000FFF74EF90028C6D02800C5E7FE238025B1
:104A70001B029946AD00C8E74978FFF719F90028ED
:104A8000B9D023781D42B6D1638800226178002B0B
:104A900000D062683000FFF733F90028ABD060889F
:104AA000AAE7002AA7D130006178FFF715F9A2E73D
:104AB000C0FF0000F0B5C64600B504006846057E9C
:104AC0008020884617001E000002824226D8E06837
:104AD000002803D00121494201F0BAFA20690028D8
:104AE00003D00121494201F0B3FA43462360730425
:104AF0005B0CED031D430023E0686381A780E58024
:104B00002381002801D001F08BFA2069002801D010
:104B100001F086FA012080BCB846F0BD0020FAE71B
:104B200010B5048941898288A3B288B28C4207D328
:104B30001B1A9BB2101C9A4200D9181C80B210BDDF
:104B40005100091A5B189BB2F4E7C04603894089FB
:104B5000181A43425841C0B27047C04610B5048984
:104B600041898288A3B288B28C4207D31B1A9BB2B8
:104B700000209A4201D9D21A90B210BD5100091AF0
:104B80005B189BB2F4E7C04670B5040000690E00E4
:104B9000002803D00121494201F05AFA2589608991
:104BA000A288A9B283B2854232D3CD1AADB2002D0C
:104BB00028D0AA4208D291422FD3891A8BB263819E
:104BC0009A4203D89B1A9BB29A42FBD9E288216889
:104BD0005204520C53433000C918FDF75DFB638942
:104BE0000125591C89B2A2888B420DD9002152009F
:104BF000891A89B220696181002801D001F010FA78
:104C0000280070BD618989B252009142F2DBEFE762
:104C10005500ED1A4D19ADB2C9E789188BB2638101
:104C2000CEE7C046F0B546464F46D646C0B506006C
:104C3000006989469046002803D00121494201F0CD
:104C400007FA31897289B5888BB294B2914254D3F4
:104C50001F1BBFB2002F4AD0BD4205D2AB4251D27A
:104C60005B199CB22F0074814346B8453DD89FB272
:104C7000A54203D8641BA4B2A542FBD9F2883168CF
:104C80005204520C904662432B1B9BB28918424639
:104C90009F4225D953439BB21A0048469A46FDF7D6
:104CA000FBFA434648467D1B64195C433168504417
:104CB000A2B2FDF7F1FA7189B588CB199BB26A00EF
:104CC000994216D99B1A9BB230697381002801D092
:104CD00001F0A6F93800E0BCBA46B146A846F0BDDE
:104CE00048467A43FDF7D8FAE5E73B1CBFE77389EE
:104CF0009BB26A009342E7DBE4E76F003F1BDF19DA
:104D0000BFB2A7E75B1B9CB2ACE7C046F8B5040096
:104D1000C0680E00002803D00121494201F098F933
:104D2000258920896189A288ADB283B28FB2884279
:104D300029D3DB1B9BB29A4209D8E779FF0906D138
:104D4000E068002801D001F06BF93800F8BD2B00B5
:104D500095421DD39B1A9BB29342FBD2E2882068F6
:104D60005204520C53433100C018FDF795FA6B1CE6
:104D70009BB2A2889D4217D9002352009B1A9BB276
:104D800001272381DCE75100C91B5B189BB2D2E7E6
:104D9000E28820685204520C53433100C018FDF7DA
:104DA0007BFA0135A288ABB252009342E8DBE5E71B
:104DB000F0B54E465746DE464546E0B58946060004
:104DC000170083B0002A67D0C068002803D00121F3
:104DD000494201F03DF93389F2799BB298467389D3
:104DE000B5889BB2D20940D198455ED26A00D31AE9
:104DF00043449BB2AB425DD2EB1A1A1C9BB2BB423E
:104E000000D93A1C97B27B1B9BB20193F3885B04D9
:104E10005B0C9A464346DB199BB29B464446A84529
:104E200003D3641BA4B2AC42FBD253466343306845
:104E30002D1BADB2C018BD424BD3524649467A43F2
:104E4000FDF72AFAB3885B00D84501D89B4503DB00
:104E50005A46D31A9BB29B465B463D003381F068AD
:104E600000281AD001F0DCF817E0F2885204520C46
:104E70009246AF4220D298454DD34246D21A92B2C2
:104E80006900781B80B2D21901908A4233DA434616
:104E9000FB189BB29B46C1E70025280003B0F0BC7D
:104EA000BB46B246A946A046F0BD4246D31A9BB2C5
:104EB000AB42A1D30025D2E7002DD0D07F1B5743B2
:104EC00098465A19002392B2B94493462F00019391
:104ED000A4E753465D43ADB22A004946FDF7DCF92D
:104EE000019B2900E21853465A43306892B2494464
:104EF000FDF7D2F9A6E75A1992B29346D21B92B2A5
:104F0000904693420CD94346591A8BB29846FB18E7
:104F10009BB29B4682E76900CA1A424492B2B0E74C
:104F2000914200DD7AE7EEE710B50400C068002882
:104F300003D00121494201F08BF82069002803D0F9
:104F40000121494201F084F80023E0686381238154
:104F5000002801D001F064F82069002801D001F098
:104F60005FF8012010BDC04670B50400C0680D0098
:104F7000002803D00121494201F06AF82069002885
:104F800003D00121494201F063F87F21E379ED016B
:104F90001940E0682943E171002801D001F040F890
:104FA0002069002801D001F03BF8012070BDC04607
:104FB00001230121084A1360084A1360084A0800C7
:104FC00013689843FBD1074A116080214900136898
:104FD0000B42FCD07047C04600E0004000F00040AB
:104FE00008C0004000C0044010B50A4B0A4AC4186B
:104FF000240DA40082B0009208482200E31CFBF7B5
:1050000063FB844202DC001B02B010BD0120404261
:10501000FAE7C0460000E0AFAC620010F8200020C4
:10502000F0B557464546DE464E468846E0B583B065
:1050300006000525FBF710FB434684465D571879AB
:10504000334B344AF3181B0D9B009246D75801226C
:1050500020248240241A013A002D41DBA54232DC93
:105060001100A9400F422ED14146096889464146A8
:105070008979002945D12C00AA40934659463A40E7
:10508000394241D1802189018846002816D06146E5
:10509000A44634004E469946030001915100705ACF
:1050A000404500D24019A918123189000132085137
:1050B0009A42F3D3019B64469C464B465A4617439B
:1050C0005246D75001E0012464426046FBF7D0FA13
:1050D000200003B0F0BCBB46B246A946A046F0BDD6
:1050E000002C02DA10E0013C0ED31100A140250093
:1050F0000F42F8D14146096889464146897900291D
:10510000BAD014246442E0E709246442DDE7C046D3
:105110000000E0AF0C1D0020F0B54E464546DE46CF
:105120005746E0B583B089460CA984460D781F2AFE
:1051300045D84946490088464944C90046183700C1
:105140003400DC373868CC34834620683100019065
:105150001C4880248246A40251440C6069424D419F
:105160001E216D428D4318498A465544052B0CD9A2
:10517000A0201F214005D836540104430532053BC9
:105180003C600A403560052BF6D852019B0613435C
:1051900042464A44D20062441000DC3213600300ED
:1051A000D8331D605B461360019BCC300360002048
:1051B00003B0F0BCBB46B246A946A046F0BD0520F0
:1051C0004042F5E7CC3000009FE00000F0B501253B
:1051D0008D400468AC430460002B2ED04D006C1849
:1051E000E400041926001F68C83637609F6804363B
:1051F00077605F68DB68DC34376023606B18184DBC
:10520000DB00AC468025C41864442D06256025606B
:10521000144C0D1D8C40846001242600AE40802576
:1052200008318C401F21AD014519C0180A40D83003
:105230002E602C6002600020F0BD4D006C18E40070
:10524000041926008027C8367F023760C0273F0335
:10525000B760F82704367F02DC3437602360CDE77F
:10526000D01000000101010110B5FFF7A1FE1F21C0
:105270001A20FBF771F9002200211A20FBF786F9AA
:1052800000211A20FBF796F91F211B20FBF764F978
:10529000002200211B20FBF779F900211B20FBF7DE
:1052A00089F91620FBF79AF9D02380221B06D20336
:1052B0009A62012100221620FBF768F910BDC04652
:1052C00010B5094B1F2118801C20FBF745F900225F
:1052D00000211C20FBF75AF900211C20FBF76AF97A
:1052E000FFF766FE10BDC046DA26002080230E4A76
:1052F0009B01116810B54B40E021C9010B400B49DF
:105300000B6004210A4B1960FC3113680B42FCD07E
:105310005068084B00041B88000CC01AFCF73CFFC7
:105320000549FCF7E8FE10BD00C0044000D0044071
:1053300000E004408E10002000F07F45F0B5DE460E
:10534000574645464E46E0B587B00390FCF744FA11
:10535000324B040018680D009A46002801D0FCF773
:1053600089FF2F4B039F1E8804937743B800FCF7F7
:105370006FFF534618602B4B83461A6880239B01AE
:105380005340E022D2011340274AB1461360002F58
:105390003CD00026254B264F059304238021214A2B
:1053A0003B60490013680B42FCD0B300984650683C
:1053B000059B00041B88000CC01AFCF7EDFE1D497C
:1053C000FCF799FE5B464246494698501A48FCF75E
:1053D000B5FDC31700900193009A019BA4185D418D
:1053E000002D02DA0124154D644220002900FBF74C
:1053F000FFFF049B01361B8899464A46039B534393
:10540000B34203DD53461B689B46C6E707B0F0BCBA
:10541000BB46B246A946A046F0BDC046A82500201E
:10542000DA26002000C0044000D004408E10002086
:1054300000E0044000F07F4540420F00FFFFFF7F87
:10544000014B18687047C046A8250020F0B5C64635
:105450001C0000B5304B0E00C118090D063186B096
:105460000500C9B220001700FBF776F801233100D0
:10547000220000932800FFF74FFE80235B02029377
:10548000FB1CFA011B031343244AA4021340039399
:10549000F823DB011C4080239B0523430593204B0D
:1054A00005200493FCF764FBFCF770FE1D49041C07
:1054B0000C98FCF734FE011C201CFCF71CFEEC21B0
:1054C0008905FCF715FE8046FCF788FE84B20023B0
:1054D000002C0ED02000FCF759FE011C4046FCF7C2
:1054E00004FE8721C905FCF71AFEFCF777FEC3B25C
:1054F0001B0224043A001C43310002AB2800029432
:10550000FFF764FE0123B3402A6813432B6006B003
:1055100080BCB846F0BDC0460000E0AFFFFFFF9F73
:1055200000000E500000204170B5194D82B02800D7
:105530001849FFF775FD184E04000021280035605A
:10554000FFF752FD154B01001860154B2200306823
:1055500000930723FFF77AFF00224821114B5A528C
:1055600000211A605A609A60DA601A615A619A6181
:10557000DA611A625A629A62DA621A635A639A6349
:10558000DA631A645A644A32995402B070BDC04654
:1055900000002050B06500106C250020B4260020CB
:1055A0000050434980170020F0B5C6460F4E450015
:1055B0002D187319984600B50D4F0C0038784843E4
:1055C000FF21FCF7BBFC434658707878FF2160430D
:1055D000FCF7B4FC7055B878FF216043FCF7AEFCD3
:1055E0004346987080BCB846F0BDC0468017002086
:1055F00090100020002248210B4B5A5200211A60C3
:105600005A609A60DA601A615A619A61DA611A62C4
:105610005A629A62DA621A635A639A63DA631A64A4
:105620005A644A329954704780170020124B70B563
:105630001A68124B12481C68012321000600103121
:105640008B40A4004B361419057851680B42FCD1ED
:105650002561457851680B42FCD1256185785168F8
:105660000B42FCD1033025618642EDD1642000213C
:10567000FBF726FF70BDC0466C250020B426002035
:1056800080170020024B187059709A707047C046FE
:105690009010002010B5034B0100186800F00EF8C0
:1056A00010BDC046A814002010B5034B01001868B7
:1056B00000F0ACFB10BDC046A8140020F0B54E466B
:1056C0004546DE465746E0B50D000B35060085B071
:1056D000162D21D8102900D9D4E000F0D5FA1025D4
:1056E00018230221CA4FFB181A005C68083A94423A
:1056F00000D186E103226368A1689343E268CA602F
:1057000091600121E3185A6830000A435A6000F0A2
:10571000C3FA20000830B8E007239D4300D5B1E06C
:10572000A94200D9AEE000F0AFFAFC235B009D4235
:1057300000D2E0E1690A00D1AEE0042900D9A1E17C
:1057400038239846A90988443931CB0008225242AF
:105750009446AF4FFB189C446346DC68A44514D0C4
:10576000032399460B0061469C4607E0E068002A47
:1057700000DB40E1814200D141E104004A46636818
:1057800093435A1B0F2AF1DD41463A003C69083227
:10579000944200D11EE1032063688343581B0F2805
:1057A00000DDACE13A617A610028AADA7A689046B5
:1057B00080229200934200D336E1DA08580901238F
:1057C0008340404618438046D300DB199A687860CE
:1057D000E360A2609C60D46001208B10984040453B
:1057E00062D8434603420AD103239943434640000B
:1057F0000431034203D1400004310342FBD00323B0
:10580000B3469C460E00B8460190F00040440100AB
:10581000B246CB680BE064465A681F00A243DB68BF
:10582000541B0F2C00DD39E1002C00DB53E19942C1
:10583000F1D101239946CA44534608319B07E8D168
:10584000032205E003680838013E834200D013E2DA
:105850003242F7D14346019A5B6893434246536014
:10586000019A520001929A421CD8002A06D119E0EE
:1058700004229146019ACA44520001921342F7D081
:105880005646C2E70C233360002005B0F0BCBB468F
:10589000B246A946A046F0BD80233F224021904653
:1058A0009B0053E75E4647460322BC686368934308
:1058B0009846AB4203D35B1B0F2B00DD8DE023002A
:1058C00043440293534B08201B6810335B19019328
:1058D00000F006FA504903900B688A46013306D05F
:1058E0008446019B4242013B6344134001933000D4
:1058F000019900F0D9F903008146013300D11CE180
:10590000029B834200D916E1444B02989B461A68D9
:10591000019B59469C4662440A60039901394845F7
:1059200000D157E153461B68013300D15EE14B467D
:1059300002981B1A9B185A46136007234A4648468A
:105940001A400292184200D115E1039801338446AF
:105950009B1A019A99444A44019263440A409B1A53
:10596000194030008A4600F09FF9431C00D158E1ED
:105970004B46C01A0300534401935B461A6801204A
:1059800052441A604B464946BB60019B03434B603F
:10599000BC4213D043460F2B00D82BE107210C3B10
:1059A0008B4361680140052019436160E11848603C
:1059B00088600F2B00D93FE14B465B6818490868A7
:1059C000904200D20A6017490868904200D20A60EB
:1059D0004C46B4E07B689846FEE60122290013435A
:1059E0001143651961603000BD606B6000F054F9CF
:1059F0002000083049E7A268D060826081E66146F5
:105A0000C3E6DC680231A34200D1BEE672E6C046BE
:105A1000A01000200419002094100020D4180020A9
:105A2000FC180020001900205A0A042A7CD9142AE4
:105A300000D9B0E010005B3082465C32D200082012
:105A400040428446BA189444624692680B308146BC
:105A5000944500D186E00800A2466146844602E0F3
:105A60009268914204D04C465068A0439842F7D8BF
:105A7000D368614654469C466346A260E3609C60DE
:105A8000D460A9E6142967D9542900D98CE06E2383
:105A90009846290B88446F31CB0057E6BA4601205F
:105AA0005146844649190543504645608568474636
:105AB0006046EB605E469D605346396179612043E4
:105AC00008374860CF6030008F609C5000F0E4F8E9
:105AD00050460830D9E6BA4601205E465244516825
